{
    "contractName": "TokenLaunchPad",
    "abi": [
        {
            "inputs": [],
            "name": "calculatePublicPhasePrice",
            "outputs": [
                {
                    "internalType": "uint256",
                    "name": "",
                    "type": "uint256"
                }
            ],
            "stateMutability": "nonpayable",
            "type": "function"
        },
        {
            "inputs": [
                {
                    "internalType": "uint256",
                    "name": "stableCoinAmount",
                    "type": "uint256"
                }
            ],
            "name": "privateSale",
            "outputs": [],
            "stateMutability": "nonpayable",
            "type": "function"
        },
        {
            "inputs": [
                {
                    "internalType": "uint256",
                    "name": "stableCoinAmount",
                    "type": "uint256"
                }
            ],
            "name": "publicSale",
            "outputs": [],
            "stateMutability": "nonpayable",
            "type": "function"
        },
        {
            "inputs": [],
            "name": "totalPublicDepositAmount",
            "outputs": [
                {
                    "internalType": "uint256",
                    "name": "",
                    "type": "uint256"
                }
            ],
            "stateMutability": "view",
            "type": "function"
        },
        {
            "inputs": [],
            "name": "userClaimLaunchToken",
            "outputs": [],
            "stateMutability": "nonpayable",
            "type": "function"
        },
        {
            "inputs": [
                {
                    "internalType": "address",
                    "name": "",
                    "type": "address"
                }
            ],
            "name": "userPrivateDepositAmount",
            "outputs": [
                {
                    "internalType": "uint256",
                    "name": "",
                    "type": "uint256"
                }
            ],
            "stateMutability": "view",
            "type": "function"
        },
        {
            "inputs": [
                {
                    "internalType": "address",
                    "name": "",
                    "type": "address"
                }
            ],
            "name": "userPublicDepositAmount",
            "outputs": [
                {
                    "internalType": "uint256",
                    "name": "",
                    "type": "uint256"
                }
            ],
            "stateMutability": "view",
            "type": "function"
        }
    ],
    "bytecode": "60808060405234602e57670de0b6b3a764000060045568056bc75e2d6310000060055561047f90816100338239f35b5f80fdfe60806040526004361015610011575f80fd5b5f3560e01c80633c7e9518146103795780634cafc7d71461035c578063ab4a493f1461028f578063b287c8ed146101e1578063b8d59a65146100e2578063bb8ee697146100a65763eeca8f1414610066575f80fd5b346100a25760203660031901126100a2576004356001600160a01b038116908190036100a2575f526009602052602060405f2054604051908152f35b5f80fd5b346100a25760203660031901126100a2576004356001600160a01b038116908190036100a2575f526008602052602060405f2054604051908152f35b346100a25760203660031901126100a2576001546040516323b872dd60e01b81523360048083019190915230602483015235604482018190529091602090839060649082905f906001600160a01b03165af19182156101d65761017f926101a9575b5061015d6101546002548361039b565b600454906103ae565b90335f52600860205261017560405f209182546103ee565b90556006546103ee565b8060065560055490810390811161019557600755005b634e487b7160e01b5f52601160045260245ffd5b6101ca9060203d6020116101cf575b6101c281836103fb565b810190610431565b610144565b503d6101b8565b6040513d5f823e3d90fd5b346100a25760203660031901126100a2576001546040516323b872dd60e01b81523360048083019190915230602483015235604482018190529091602090839060649082905f906001600160a01b03165af19182156101d65761026592610272575b50335f52600960205260405f2061025b8282546103ee565b9055600a546103ee565b600a556102706103cc565b005b61028a9060203d6020116101cf576101c281836103fb565b610243565b346100a2575f3660031901126100a257335f5260096020525f60206102f26102be60408420546003549061039b565b6102ec6102ce60045480936103ae565b91338652600885526102e760408720546002549061039b565b6103ae565b906103ee565b3383526009825282604081205533835260088252826040812055604460018060a01b0384541691604051948593849263a9059cbb60e01b845233600485015260248401525af180156101d65761034457005b6102709060203d6020116101cf576101c281836103fb565b346100a2575f3660031901126100a2576020600a54604051908152f35b346100a2575f3660031901126100a25760206103936103cc565b604051908152f35b8181029291811591840414171561019557565b81156103b8570490565b634e487b7160e01b5f52601260045260245ffd5b5f906103e96103e06007546004549061039b565b600a54906103ae565b600355565b9190820180921161019557565b90601f8019910116810190811067ffffffffffffffff82111761041d57604052565b634e487b7160e01b5f52604160045260245ffd5b908160209103126100a2575180151581036100a2579056fea2646970667358221220b911a881674ef2b22e68f11ee0ed1cadb6139fb12b06218176476ac94853913b64736f6c634300081c0033",
    "sourcePath": "/Users/maikelei/Documents/GitHub/foundry-template/src/precision_loss/TokenLaunchpad.sol",
    "compiler": {
        "name": "solc",
        "version": "0.8.28+commit.7893614a"
    },
    "functionHashes": {
        "calculatePublicPhasePrice()": "3c7e9518",
        "privateSale(uint256)": "b8d59a65",
        "publicSale(uint256)": "b287c8ed",
        "totalPublicDepositAmount()": "4cafc7d7",
        "userClaimLaunchToken()": "ab4a493f",
        "userPrivateDepositAmount(address)": "bb8ee697",
        "userPublicDepositAmount(address)": "eeca8f14"
    },
    "gasEstimates": {
        "creation": {
            "codeDepositCost": "230200",
            "executionCost": "44488",
            "totalCost": "274688"
        },
        "external": {
            "calculatePublicPhasePrice()": "28723",
            "privateSale(uint256)": "infinite",
            "publicSale(uint256)": "infinite",
            "totalPublicDepositAmount()": "2270",
            "userClaimLaunchToken()": "infinite",
            "userPrivateDepositAmount(address)": "2469",
            "userPublicDepositAmount(address)": "2488"
        }
    }
}